:020000040800F2
:1000000000500020D901000800000000000000009E
:1000100000000000000000000000000000000000E0
:1000200000000000000000000000000000000000D0
:1000300000000000000000000000000000000000C0
:1000400000000000000000000000000000000000B0
:1000500000000000000000000000000000000000A0
:100060000000000000000000000000000000000090
:100070000000000000000000000000000000000080
:100080000000000000000000000000000000000070
:100090000000000000000000000000000000000060
:1000A0000000000000000000000000000000000050
:1000B0000000000000000000000000000000000040
:1000C0000000000000000000000000000000000030
:1000D0000000000000000000000000000000000020
:1000E0000000000000000000000000000000000010
:1000F0000000000000000000000000000000000000
:1001000000000000000000000000000000000000EF
:1001100000000000000000000000000000000000DF
:1001200000000000000000000000000000000000CF
:1001300000000000000000000000000000000000BF
:1001400000000000000000000000000000000000AF
:1001500082B0114B0193114B009307E0019A531C9D
:100160000193009B591C009112781A70009B0C4A55
:100170009342F3D30B4B009305E0009B00221A70CF
:10018000009B01330093009B074A9342F5D300BFC5
:1001900000BF02B0704700BF00030008000000204D
:1001A000000000200000002000000020094B1B6818
:1001B000084A43F00103136000BF064B1B6803F0BD
:1001C0000203002BF9D0034B024A5B68536000BF67
:1001D000704700BF0010024000B587B0FFF7B8FFBE
:1001E000FFF7E4FF00230593414B9B69404A43F02E
:1001F000010393613E4B9B693D4A43F004039361C5
:100200003B4B9B693A4A43F480439361394B5B68AB
:10021000384A23F47F635360364B5B68354A43F4B6
:100220003B635360344BDB68334A43F40053D36081
:10023000314B314ADB68D3602F4B2F4A1B69136166
:100240002D4B40F241329A602B4BDB682A4A43F037
:100250000803D360284BDB68274A43F00403D360CC
:100260004FF000630493049B1B680393039B1B0ED6
:100270008DF80730204B5A689DF807301E4913430C
:100280004B6000BF1C4B1B6803F04003002BF9D0F0
:100290000423029318E0029B013BDB00039A22FA3D
:1002A00003F38DF80730144B5A689DF80730124954
:1002B00013434B6000BF104B1B6803F04003002B3F
:1002C000F9D0029B013B0293029B002BE3DC049BD1
:1002D00004330493049B1B680393084B059302E0CB
:1002E000059B013B0593059B002BF9D1D0E700BF8F
:1002F00000100240000801400038014040420F0059
:04000005080001D915
:00000001FF
