:020000040801F1
:10FC00000050002035FC0108094B1B68084A43F0EE
:10FC10000103136000BF064B1B6803F00203002BB7
:10FC2000F9D0034B024A5B68536000BF704700BFC6
:10FC30000010024000B587B0FFF7E6FF2D4B5B6870
:10FC40002C4A23F47F6353602A4B5B68294A43F4B0
:10FC50003B635360284B284ADB68D360264B40F255
:10FC600041329A604FF000630593059B1B68049333
:10FC7000049B1B0E8DF807301F4B5A689DF8073008
:10FC80001D4913434B6000BF1B4B1B6803F040032F
:10FC9000002BF9D0194B039302E0039B013B039324
:10FCA000039B002BF9DC0423029318E0029B013B29
:10FCB000DB00049A22FA03F38DF807300E4B5A68E2
:10FCC0009DF807300C4913434B6000BF0A4B1B687B
:10FCD00003F04003002BF9D0029B013B0293029BEF
:10FCE000002BE3DC059B04330593059B1B68049301
:10FCF000D0E700BF000801400038014040420F003B
:040000050801FC35BD
:00000001FF
