:020000042000DA
:101000000050002035100020094B1B68084A43F0AF
:101010000103136000BF064B1B6803F00203002BA3
:10102000F9D0034B024A5B68536000BF704700BFB2
:101030000010024000B587B0FFF7E6FF2B4B5B685E
:101040002A4A23F47F635360284B5B68274A43F4A2
:101050003B635360264B40F241329A604FF000638D
:101060000593059B1B680493049B1B0E8DF80730AA
:101070001F4B5A689DF807301D4913434B6000BF52
:101080001B4B1B6803F04003002BF9D0194B039353
:1010900002E0039B013B0393039B002BF9DC042339
:1010A000029318E0029B013BDB00049A22FA03F34F
:1010B0008DF807300E4B5A689DF807300C491343E2
:1010C0004B6000BF0A4B1B6803F04003002BF9D0B4
:1010D000029B013B0293029B002BE3DC059B043344
:1010E0000593059B1B680493D0E700BF00080140EF
:0810F0000038014040420F00EE
:040000052000103592
:00000001FF
